{
  "contractName": "InterestStrategy",
  "abi": [
    {
      "inputs": [
        {
          "internalType": "uint256",
          "name": "_offesett",
          "type": "uint256"
        },
        {
          "internalType": "uint256",
          "name": "_multiplier",
          "type": "uint256"
        }
      ],
      "stateMutability": "nonpayable",
      "type": "constructor"
    },
    {
      "inputs": [
        {
          "internalType": "uint256",
          "name": "reserves",
          "type": "uint256"
        },
        {
          "internalType": "uint256",
          "name": "target",
          "type": "uint256"
        }
      ],
      "name": "getInterestForReserve",
      "outputs": [
        {
          "internalType": "int256",
          "name": "",
          "type": "int256"
        }
      ],
      "stateMutability": "view",
      "type": "function",
      "constant": true
    },
    {
      "inputs": [
        {
          "internalType": "uint256",
          "name": "newOffsett",
          "type": "uint256"
        }
      ],
      "name": "setOffsett",
      "outputs": [
        {
          "internalType": "bool",
          "name": "",
          "type": "bool"
        }
      ],
      "stateMutability": "nonpayable",
      "type": "function"
    },
    {
      "inputs": [],
      "name": "getOffsett",
      "outputs": [
        {
          "internalType": "uint256",
          "name": "",
          "type": "uint256"
        }
      ],
      "stateMutability": "view",
      "type": "function",
      "constant": true
    },
    {
      "inputs": [
        {
          "internalType": "uint256",
          "name": "newMultiplier",
          "type": "uint256"
        }
      ],
      "name": "setMultiplier",
      "outputs": [
        {
          "internalType": "bool",
          "name": "",
          "type": "bool"
        }
      ],
      "stateMutability": "nonpayable",
      "type": "function"
    },
    {
      "inputs": [],
      "name": "getMultiplier",
      "outputs": [
        {
          "internalType": "uint256",
          "name": "",
          "type": "uint256"
        }
      ],
      "stateMutability": "view",
      "type": "function",
      "constant": true
    }
  ],
  "bytecode": "0x608060405234801561001057600080fd5b506040516107aa3803806107aa8339818101604052810190610032919061005c565b816000819055508060018190555050506100b9565b600081519050610056816100a2565b92915050565b6000806040838503121561006f57600080fd5b600061007d85828601610047565b925050602061008e85828601610047565b9150509250929050565b6000819050919050565b6100ab81610098565b81146100b657600080fd5b50565b6106e2806100c86000396000f3fe608060405234801561001057600080fd5b50600436106100575760003560e01c806340490a901461005c57806344411d0d1461007a578063641579a614610098578063795ca5b8146100c8578063dcab138a146100f8575b600080fd5b610064610128565b6040516100719190610353565b60405180910390f35b610082610132565b60405161008f9190610353565b60405180910390f35b6100b260048036038101906100ad919061028b565b61013b565b6040516100bf919061031d565b60405180910390f35b6100e260048036038101906100dd919061028b565b61014d565b6040516100ef919061031d565b60405180910390f35b610112600480360381019061010d91906102b4565b61015f565b60405161011f9190610338565b60405180910390f35b6000600154905090565b60008054905090565b60008160018190555060019050919050565b60008160008190555060019050919050565b60008083905060008390506000620186a0905060006101ab8361019d61018e878761021e90919063ffffffff16565b8561023490919063ffffffff16565b61024a90919063ffffffff16565b905060006101e86101d7836101c9858661023490919063ffffffff16565b61023490919063ffffffff16565b60015461023490919063ffffffff16565b9050610211600054610203858461024a90919063ffffffff16565b61026090919063ffffffff16565b9550505050505092915050565b6000818361022c9190610583565b905092915050565b60008183610242919061046c565b905092915050565b600081836102589190610402565b905092915050565b6000818361026e919061036e565b905092915050565b60008135905061028581610695565b92915050565b60006020828403121561029d57600080fd5b60006102ab84828501610276565b91505092915050565b600080604083850312156102c757600080fd5b60006102d585828601610276565b92505060206102e685828601610276565b9150509250929050565b6102f981610617565b82525050565b61030881610623565b82525050565b6103178161062d565b82525050565b600060208201905061033260008301846102f0565b92915050565b600060208201905061034d60008301846102ff565b92915050565b6000602082019050610368600083018461030e565b92915050565b600061037982610623565b915061038483610623565b9250817f7fffffffffffffffffffffffffffffffffffffffffffffffffffffffffffffff038313600083121516156103bf576103be610637565b5b817f80000000000000000000000000000000000000000000000000000000000000000383126000831216156103f7576103f6610637565b5b828201905092915050565b600061040d82610623565b915061041883610623565b92508261042857610427610666565b5b600160000383147f80000000000000000000000000000000000000000000000000000000000000008314161561046157610460610637565b5b828205905092915050565b600061047782610623565b915061048283610623565b9250827f7fffffffffffffffffffffffffffffffffffffffffffffffffffffffffffffff04821160008413600084131616156104c1576104c0610637565b5b817f800000000000000000000000000000000000000000000000000000000000000005831260008412600084131616156104fe576104fd610637565b5b827f8000000000000000000000000000000000000000000000000000000000000000058212600084136000841216161561053b5761053a610637565b5b827f7fffffffffffffffffffffffffffffffffffffffffffffffffffffffffffffff058212600084126000841216161561057857610577610637565b5b828202905092915050565b600061058e82610623565b915061059983610623565b9250827f8000000000000000000000000000000000000000000000000000000000000000018212600084121516156105d4576105d3610637565b5b827f7fffffffffffffffffffffffffffffffffffffffffffffffffffffffffffffff01821360008412161561060c5761060b610637565b5b828203905092915050565b60008115159050919050565b6000819050919050565b6000819050919050565b7f4e487b7100000000000000000000000000000000000000000000000000000000600052601160045260246000fd5b7f4e487b7100000000000000000000000000000000000000000000000000000000600052601260045260246000fd5b61069e8161062d565b81146106a957600080fd5b5056fea2646970667358221220df00eb2f2704e8ea922ec6f2b01ca2d699de359a48a9e3300d8e2ea8ca7a45b264736f6c63430008020033",
  "immutableReferences": {},
  "source": "// SPDX-License-Identifier: MIT\n\npragma solidity ^0.8.0;\n\nimport \"../interfaces/InterestStrategyInterface.sol\";\n\nimport \"../node_modules/openzeppelin-contracts/math/SafeMath.sol\";\nimport \"../node_modules/openzeppelin-contracts/math/SignedSafeMath.sol\";\nimport \"../node_modules/openzeppelin-contracts/access/Ownable.sol\";\n\n//Describes a cubic parabola\ncontract InterestStrategy is InterestStrategyInterface {\n    using SafeMath for uint256;\n    using SignedSafeMath for int256;\n\n    uint256 offsett;\n    uint256 multiplier;\n\n    constructor(uint256 _offesett, uint256 _multiplier) {\n        offsett = _offesett;\n        multiplier = _multiplier;\n    }\n\n    //Computes what the interest is at the point on the curve described by the difference between actual reserves and target\n    function getInterestForReserve(uint256 reserves, uint256 target)\n        public\n        view\n        override\n        returns (int256)\n    {\n        int256 _reserves = int256(reserves);\n        int256 _target = int256(target);\n        int256 scaler = 100000; //this allows to have a division of hole numbers\n        int256 delta = (scaler.mul(_target.sub(_reserves))).div(_target);\n        int256 interest = int256(multiplier).mul(delta.mul(delta).mul(delta));\n        return interest.div(scaler).add(int256(offsett));\n    }\n\n    //Sets the offsett to a new value\n    function setOffsett(uint256 newOffsett) public override returns (bool) {\n        offsett = newOffsett;\n        return true;\n    }\n\n    //Gets the current offsett\n    function getOffsett() external view override returns (uint256) {\n        return offsett;\n    }\n\n    //Sets the Multiplier to a new value\n    function setMultiplier(uint256 newMultiplier)\n        external\n        override\n        returns (bool)\n    {\n        multiplier = newMultiplier;\n        return true;\n    }\n\n    //Gets the current Multiplier\n    function getMultiplier() external view override returns (uint256) {\n        return multiplier;\n    }\n}\n",
  "sourcePath": "/Users/ale/Desktop/sovreign-contracts/contracts/InterestStrategy.sol",
  "compiler": {
    "name": "solc",
    "version": "0.8.2+commit.661d1103.Emscripten.clang"
  },
  "schemaVersion": "3.3.4",
  "updatedAt": "2021-03-16T18:12:10.740Z",
  "networkType": "ethereum",
  "devdoc": {
    "kind": "dev",
    "methods": {},
    "version": 1
  },
  "userdoc": {
    "kind": "user",
    "methods": {},
    "version": 1
  }
}